:020000040800F2
:1000000078060020290200083102000833020008A7
:10001000350200083702000839020008000000001D
:100020000000000000000000000000003B0200088B
:100030003D020008000000003F02000841020008E5
:10004000430200084302000843020008430200087C
:10005000430200084302000843020008430200086C
:10006000430200084302000843020008430200085C
:10007000430200084302000843020008430200084C
:10008000430200084302000843020008430200083C
:10009000430200084302000843020008430200082C
:1000A000430200084302000843020008430200081C
:1000B000430200084302000843020008430200080C
:1000C00043020008430200084302000843020008FC
:1000D00043020008430200084302000843020008EC
:1000E00043020008430200084302000843020008DC
:1000F00043020008430200084302000843020008CC
:1001000043020008430200084302000843020008BB
:1001100043020008430200084302000843020008AB
:10012000430200084302000843020008430200089B
:10013000430200084302000843020008430200088B
:10014000430200084302000843020008430200087B
:10015000430200084302000843020008430200086B
:10016000430200084302000843020008430200085B
:100170004302000843020008430200080000000098
:10018000430200084302000800F002F800F03CF8C7
:100190000AA090E8000C82448344AAF10107DA45E2
:1001A00001D100F031F8AFF2090EBAE80F0013F0F8
:1001B000010F18BFFB1A43F001031847A00300000A
:1001C000C0030000103A24BF78C878C1FAD852079B
:1001D00024BF30C830C144BF04680C6070470000C1
:1001E0000023002400250026103A28BF78C1FBD840
:1001F000520728BF30C148BF0B6070471FB500F0E1
:10020000A8F91FBD10B510BD00F031F81146FFF779
:10021000F5FF00F057F900F04FF803B4FFF7F2FFD5
:1002200003BC00F057F80000094880470948004720
:10023000FEE7FEE7FEE7FEE7FEE7FEE7FEE7FEE796
:10024000FEE7FEE704480549054A064B70470000F3
:10025000E5020008890100087800002078060020E7
:10026000780200207802002070477047704775467A
:1002700000F02CF8AE4605006946534620F0070012
:10028000854618B020B5FFF7DDFFBDE820404FF0F0
:1002900000064FF000074FF000084FF0000B21F070
:1002A0000701AC46ACE8C009ACE8C009ACE8C0093D
:1002B000ACE8C0098D46704710B50446AFF3008026
:1002C0002046BDE81040FFF7A8BF00000048704777
:1002D0001400002001491820ABBEFEE726000200F2
:1002E000704700001448006840F47000124908602C
:1002F0001248006840F001001049086000200F49D2
:10030000083108600D4800680D4908400B49086035
:100310000C48091D0860081F006820F48020091F90
:100320000860002005490C3108604FF00060024968
:10033000803908607047000088ED00E00038024016
:10034000FFFFF6FE1030002405461446012D1ED195
:10035000D4E9032102F1080000F0F6F820F00100D2
:10036000461CD4E9030200F10801304600F0EFF822
:10037000D4E9032102F1080000F0E6F840F08046DD
:10038000D4E9030200F10801304600F0E0F800BFB4
:10039000FEE70000004870470400002002460248C3
:1003A000D060116100207047002001402DE9F0412C
:1003B00005460E4617461C46D4E9032102F12C00DF
:1003C00000F0C2F820F4700040EA0558D4E90302B6
:1003D00000F12C01404600F0BAF8D4E9032102F103
:1003E0000C0000F0B1F820F4E07040EA8618D4E97F
:1003F000030200F10C01404600F0A9F8D4E9032102
:1004000002F1340000F0A0F820F01F0040EA0708D5
:10041000D4E9030200F13401404600F098F80020CE
:10042000BDE8F08170B505460C46D4E9032102F51C
:10043000417000F089F820F4403040EA0546D4E9E4
:10044000030200F54171304600F081F8002070BDD4
:100450002DE9F04105460E4617461C46D4E9032116
:10046000101D00F071F820F0407040EA0568D4E9F2
:100470000302011D404600F06AF8D4E9032102F1AD
:10048000080000F061F820F4006040EAC628D4E9D2
:10049000030200F10801404600F059F8D4E90321B5
:1004A00002F1080000F050F820F0020040EA47088E
:1004B000D4E9030200F10801404600F048F80020AA
:1004C000BDE8F08186B000F01FF8FFF763FF044637
:1004D000002101A8FFF762FF01A90020E268904710
:1004E00001AB002211461046A568A84701AB0C22BB
:1004F000072100206568A84704E001AA6946012099
:1005000023689847F9E700000D48006840F48070C0
:100510000B4908600A481438006840F00400084994
:10052000143908600748006840F0407005490860C9
:1005300004480C30006803490C3108607047000023
:1005400044380240000802400246106870470860C4
:1005500070474FF04070E1EE100A70477C050008CC
:100560000000002014000000C401000890050008ED
:100570001400002064060000E001000800000000F4
:1005800049030008AD0300085104000825040008D1
:0400000508000229C4
:00000001FF
